:020000040800F2
:10000000A03D00209D0100080F2E0008EF2C0008E5
:100010000D2E0008DD100008D53400080000000097
:1000200000000000000000000000000005010008C2
:10003000EF10000800000000490100082D31000801
:10004000B7010008B7010008B7010008B7010008B0
:10005000B7010008B7010008D9120008B70100086D
:10006000B7010008B7010008B7010008B701000890
:10007000B7010008B7010008B7010008B701000880
:10008000B7010008B7010008B7010008B701000870
:10009000B7010008B7010008B7010008B701000860
:1000A000B7010008C5310008B7010008B701000812
:1000B000B7010008B7010008B7010008B701000840
:1000C000B7010008B7010008B7010008B701000830
:1000D000B7010008B7010008C9340008B7010008DB
:1000E000B7010008B7010008B7010008DFF810D019
:1000F00000F08EFD00480047B5400008AFF30080D7
:10010000A03D0020224B19680868B0E8F00F80F38A
:100110000988BFF36F8F4FF0000080F311884EF015
:100120000D0E70470000000006480068006880F36C
:10013000088862B661B6BFF34F8FBFF36F8F00DFE1
:1001400000BF00BF08ED00E0EFF30980BFF36F8F41
:100150000F4B1A6820E9F00F106008B54FF05000FF
:1001600080F31188BFF34F8FBFF36F8F04F076FDDC
:100170004FF0000080F31188BDE808401968086856
:10018000B0E8F00F80F30988BFF36F8F704700BFAE
:1001900030000020EFF305807047000006488047DC
:1001A00006480047FEE7FEE7FEE7FEE7FEE7FEE75C
:1001B000FEE7FEE7FEE7FEE7C1310008ED000008BC
:1001C000202A04DB203A21FA02F00021704721FAAC
:1001D00002F3D040C2F12002914008431946704713
:1001E00040EA01039B0703D009E008C9121F08C0B9
:1001F000042AFAD203E011F8013B00F8013B521E39
:10020000F9D27047D2B201E000F8012B491EFBD2AF
:1002100070470022F6E710B513460A460446194611
:10022000FFF7F0FF204610BD10B5044604E00B7840
:1002300000F8013B03B1491C521EF8D2204610BD04
:1002400010B5002200E0521C835C8C5CA34201D1FB
:10025000002BF8D1D8B2E1B2401A10BD30B5054636
:100260000020034600E05B1C934205D2EC5CC85CB6
:10027000201A01D1002CF6D130BD000070B50F4D11
:1002800000B92868002412E00A4602E09E4203D02A
:10029000521C1378002BF9D1DAB2224305D02BB1CE
:1002A00024B1002100F8011B04E00446401C06783C
:1002B000002EE9D12860204670BD0000AC0000206F
:1002C0002DE9F05F93460F4680460446002603F072
:1002D0004FFAD0F80090824614F8015B2DB100F07F
:1002E000D7F90068405DC007F6D12B2D02D02D2D27
:1002F0001AD0641E0021CAF800105A46394620461A
:1003000000F0D3F9014627B13868A04201D1C7F8FF
:100310000080DAF80000022809D0CAF800907005C1
:1003200005D54842BDE8F09F46F48066E2E70846FE
:10033000F8E770B5064603F01BFA046805460A2282
:100340000021304600F04EFA2C6070BD70B50646B4
:1003500003F00EFA046805460A220021304600F038
:1003600041FA2C6070BDF0B480EA0102D40F420063
:10037000B2EB410F02D20246084611464A0042D073
:10038000C30DDDB2C1F3C752AD1A202D35DAC1F36A
:10039000160141F4000204B15242C5F1200602FAEE
:1003A00006F12A411044B3EBD05F23D0C4B1012D34
:1003B000A0EBC35009DCF0BC4FF0004202EAC3528C
:1003C000DBB200F5000000F04EBA400000F1807092
:1003D00000EBC350A0F1807040EAD170490009E001
:1003E000490841EAC071A0EBC35000F50000400885
:1003F00000EBC350F0BC00F02DBA6142012202EBC9
:100400004101001BF6E7F0BC704781F00041AAE70C
:1004100080F00040A7E730B480EA010202F0004516
:1004200030F0004221F0004013D090B1C30DD40D44
:10043000C2F31601C0F31600E41A41F4000140F4BF
:1004400000027D34914201D3641C00E04900002C7D
:1004500002DA30BC002070474FF4000000239142C4
:1004600001D3891A034340084FEA4101F7D151B142
:10047000914202D14FF0004105E002D24FF001015C
:1004800001E06FF0010103EBC450284430BC00F0E0
:10049000E1B92DE9F04D81EA030404F0004B21F0AD
:1004A000004514464FF0000A23F0004150EA0502CF
:1004B00020D054EA01021DD0C5F30A570246C5F305
:1004C0001303C1F31300C1F30A5640F4801543F43B
:1004D0008013A7EB0608101BD64608F2FD3873EB15
:1004E000050002D308F1010801E092185B41B8F160
:1004F000000F03DA00200146BDE8F08D00204FF424
:100500008011064684460EE0171B73EB050705D3E2
:10051000121B63EB050306434CEA010C49084FEA42
:10052000300092185B4150EA0107EDD152EA030016
:1005300012D082EA040083EA0501084305D0101BAB
:10054000AB4106D20122002306E000224FF0004317
:1005500002E06FF0010253101AEB06004CEB085159
:1005600010EB0A0041EB0B01BDE8F04D00F0A9B91A
:1005700000F0004220F00040C10DC0F3160040F42E
:1005800000007F2901DA00207047962903DCC1F1C1
:100590009601C84001E096398840002AF4D04042D4
:1005A000704700F0004230F000400AD0C10D01F564
:1005B0006071C0F3160042EA0151C20840071143BE
:1005C000704700200146704701F0004330B421F02D
:1005D000004150EA010206D00A0DA2F56072C1F393
:1005E0001301002A02DC30BC00207047440F44EAAB
:1005F000C104C100E01830BC00EBC25000F02AB9C1
:1006000030B50B46014600202022012409E021FAE2
:1006100002F59D4205D303FA02F5491B04FA02F5DF
:100620002844151EA2F10102F1DC30BD2DE9F05F76
:100630000546002092469B46884606468146402451
:100640001BE02846414647462246FFF7B9FD534680
:100650005A46C01A914110D311461846224600F05E
:10066000E9FA2D1A67EB01084F46224601200021C6
:1006700000F0E0FA17EB00094E41201EA4F101043E
:10068000DFDC484631462A464346BDE8F09F00007D
:1006900000487047D857000810B50446FFF7F8FF28
:1006A0000068005D00F0010010BD2DE9F05F82469A
:1006B0000078002715468B460AF10104B946302818
:1006C00001D09DB113E014F8010B0127782803D065
:1006D000582801D045B10AE00DB1102D07D10027EF
:1006E000102514F8010B02E0082500E00A25002679
:1006F000B0460EE005FB080005FB06F1012701EB03
:1007000010461FFA80F8B6F5803F00D3B94614F8BA
:10071000010B294600F0AFFA0028EBDABBF1000F1D
:1007200005D00FB1641E00E05446CBF80040B9F18B
:10073000000F06D003F01CF802210160C81EBDE8BE
:10074000F09F48EA0640FAE70FB4002300B589B0ED
:100750000CA900910B996FF00042CB601E4B0693E1
:100760001E4B07930423CDE901321D4A089202462D
:100770006B46002000F022FB09B05DF814FB70B559
:1007800086B006464FF0FF300091CDE90101002010
:1007900015460C4604903246694604A8FFF7D4FF7C
:1007A00002460498211825B108B1084600E0204609
:1007B0002860049800280DD0002A02DD00988842A5
:1007C00008D0081B0094CDE901043246694604A80C
:1007D000FFF7BAFF06B070BDF50F00081310000850
:1007E000990600082DE9F04791460F4680460446D9
:1007F000002614F8015B2DB1FFF74AFF0068405D49
:10080000C007F6D12B2D02D02D2D18D0641E4A46DC
:1008100039462046FFF749FF27B13968A14201D187
:10082000C7F8008071054FF002040BD54042002844
:1008300003DD02F09DFF0460A007BDE8F08746F4E9
:100840008066E4E70028F8DA02F092FF04606FF0B7
:100850000040F2E70029A8BF7047401C490008BFCC
:1008600020F00100704710B4B0FA80FC00FA0CF0E0
:1008700050EA010404BF10BC704749B1CCF1200418
:1008800021FA04F411FA0CF118BF012121430843A5
:10089000A3EB0C01CB1D4FEA00614FEA102042BFD1
:1008A000002010BC704700EBC35010440029A4BFC7
:1008B00010BC7047401C490008BF20F0010010BC6C
:1008C000704710B5141E73F1000408DA401C41F1A2
:1008D000000192185B411A4301D120F0010010BDC4
:1008E0002DE9F04D92469B4611B1B1FA81F202E03A
:1008F000B0FA80F22032904600F09CF904460F4690
:1009000040EA0A0041EA0B0153465A46084313D015
:10091000114653EA010019D0C8F140025046FFF7D2
:100920004FFC05460E4650465946424600F082F9B5
:10093000084305D0012004E020463946BDE8F08D8B
:100940000020054346EAE0762C4337430A986305C6
:10095000E40AA0EB08000022FD0A44EA47540A30EA
:1009600002D500200146E9E7010510196941DDE9DA
:10097000084500196941BDE8F04DA2E72DE9FE4F99
:10098000804681EA0300C00F0C46009021F0004130
:1009900023F00045B8EB0200A94105D240462146AC
:1009A00090461C460B46024623F00040104347D0B9
:1009B000270DC7F30A00C3F30A510290401A0190B1
:1009C00040286BDAC3F3130040F4801B0098924672
:1009D00020B10023D2EB030A63EB0B0B01985946BD
:1009E000C0F14002504600F025F906460D4650463B
:1009F0005946019A00F02DF910EB080061410024DE
:100A000087EA115284EAE7731A4340D0009A62B32E
:100A1000019A012A4FEA075215DC001B61EB020123
:100A20004FF0004202EA0752CDE90042001C41F5B6
:100A3000801132462B46FFF753FF03B0BDE8F08F1D
:100A400040462146F9E7001B61EB0201001C41F51D
:100A5000801300185B412018A2F5001747EB030133
:100A600040EAD570B6196D4111E06D084FEA3606BF
:100A700045EAC0754FEA0752001B61EB0201001CFA
:100A800041F5801149084FEA3000001951413246C2
:100A90002B4603B0BDE8F04FFFF713BF00980122CB
:100AA00040000023D0EB020263EBE0730098214684
:100AB0004FEAE074B8EB000061EB0401E9E783F072
:100AC00000435BE781F0004158E72DE9FE4F81EAE2
:100AD000030404F0004421F0004100944FF0000BA7
:100AE00023F0004350EA01045ED052EA03045BD0D5
:100AF000C3F30A54C1F30A552C44A4F2F33401940D
:100B0000A0FB0254C1F3130141F48011C3F313039A
:100B100043F4801301FB024400FB034E840A970A4E
:100B200044EA815447EA8357A4FB076802958D0A7B
:100B300005FB07854FEA932C04FB0C542705029D07
:100B40004FEA065847EA1637B5EB08056EEB070C77
:100B5000870E920E47EA811742EA8312A7FB020131
:100B6000B6EB0B0164EB00042B0D43EA0C335E186B
:100B700044EB1C50DA465146E7FB0201C5F313046F
:100B80004FEA0B3343EA14534FEA0432019C43EA21
:100B90000603A4F10C040294009CCDE900B4FFF715
:100BA0009FFE03B0BDE8F08F00200146F9E7C1F3D6
:100BB0000A52C1F3130140F2FF3341F480119A420B
:100BC00002DA00200146704740F233439A42A2F213
:100BD000334202DC5242FFF7F3BA00F02BB80000B8
:100BE00030B5041E71F1000404DB4FF000444042B4
:100BF00064EB0101141E73F1000405DB1C464FF089
:100C00000043524263EB0403994208BF904230BD57
:100C1000064C074D06E0E06840F0010394E8070049
:100C200098471034AC42F6D3FFF764FADC5700085B
:100C3000FC570008202A04DB203A00FA02F10020C9
:100C400070479140C2F1200320FA03F3194390400A
:100C50007047202A06DBCB17203A41FA02F043EA1C
:100C6000E07306E041FA02F3D040C2F12002914065
:100C70000843194670473A2800D2303820F0200245
:100C8000412A01D3A2F13700884201D34FF0FF304F
:100C9000704700002DE9FF4F087883B09946FF2880
:100CA00005D0491C2D2804D00024002008E0002095
:100CB0000BE00124F9E700EB800003EB4000491C46
:100CC0000B78FF2BF7D104B1404200230293147834
:100CD00019461D462D2C01D02B2C04D1521C2D2C35
:100CE00013D000240294AA461478FF2C0FD00A25B2
:100CF000A3FB057801FB05814FF0000C03FB0C11F1
:100D0000521CE3194AEB0101EEE70124EAE78144B2
:100D100053EA010002D019F5C87F06DA03980021D2
:100D2000C0E9001107B0BDE8F08F0025AE4E2F4698
:100D3000DFF8B882184600F07DF9CDE90001B9F17D
:100D4000000002DAC9F1000400E004460023A74ACB
:100D50001AEB030B42EB045A12E0E00707D02A46D5
:100D6000334638464146FFF7B0FE074688462A46D6
:100D7000334610461946FFF7A8FE05460E46641096
:100D8000002CEAD1DDE90001B9F1000F5A465346C3
:100D900006DAFFF77EFB3A464346FFF77AFB05E0AB
:100DA000FFF793FE3A464346FFF78FFE029A0AB1D9
:100DB00081F00041039AC2E90001B3E72DE9FF4F3A
:100DC0001F468DB0D7E901464FF0FF382E2045462B
:100DD0004FF000090B90B9696D1C0E988847396A6D
:100DE000824688470028F6D1BAF1FF3F0AD024F4A2
:100DF000D064002E11DDBAF12B0F08D0BAF12D0FFF
:100E00000BD102E0404611B08DE744F48064B9692B
:100E10006D1C0E9888478246761E6946600501D58E
:100E20002D2000E02B208DF8000001F1010B0DF1C9
:100E3000200809E0B9696D1C0E98884782460F9812
:100E400044F40074761E0560002E02DDBAF1300F06
:100E5000F0D00B998A453ED144F0800406E00F990A
:100E6000681CA9F1010944F400740860B9696D1C9B
:100E7000761E0E98884782463028F0D02BE00B99DA
:100E80008A4505D1200603D444F08004761E18E07C
:100E9000504602F04FFD08B30DF11301761E44F4E5
:100EA00000748B4508D2AAF130000BF8010B200624
:100EB00007D5A9F1010003E0200602D409F10100E1
:100EC0008146A00502D50F99681C0860B9696D1CA0
:100ED0000E9888478246002ED1DC53E0002E51DD6B
:100EE000BAF1650F02D0BAF1450F4BD1A00549D533
:100EF000B9696D1C24F44074761E0E9888478246AA
:100F0000002E0CDD2B2804D0BAF12D0F07D144F4AC
:100F10008074B9696D1C0E9888478246761EE0057C
:100F200001D52D2100E02B2108F8011BCDF82C80E4
:100F300021E00DF12901761E44F4007488450CD29D
:100F4000AAF1300010F0FF0088F8000002D10B99E0
:100F5000884509D908F1010806E0E00501D52448D3
:100F600001E042F20F708146B9696D1C0E98884706
:100F700082460F980560002E04DD504602F0DAFC30
:100F80000028D6D1F9690E988847FF208BF8000019
:100F900088F800000020069007904B466A4608A992
:100FA00006A8FFF777FEA00502D46FF001002AE73C
:100FB00014F0240F0AD0E00714D1DDE906123868D6
:100FC000031D3B600068C0E900120BE0DDE906018B
:100FD000FFF7FAFA0146E00704D13868021D3A60CB
:100FE0000068016028460EE7000014400000F03F52
:100FF000F1D8FFFF426842B1016811F8013B23B10B
:10100000521EC0E90012184670470121C160881EB7
:10101000704742685AB1C368016843B983688B421C
:1010200005D0491E521CC0E90012002070474FF045
:10103000FF3070470EB540F2334202920022CDE9F4
:1010400000221346FFF74CFC03B000BD1CB50CA0FA
:1010500002F054FB12490A20CDE90001002380224E
:1010600010A1134804F0A8F8012807D011A000BF70
:1010700002F044FBBDE81C4003F0BCBD12A0F7E742
:101080003D3D3D3D3D3D3D3D3D3D73746172743D93
:101090003D3D3D3D3D3D3D3D3D3D0D0A00000000D7
:1010A0008400002053746172745461736B000000FB
:1010B00081300008C6F4B6AFC8CECEF1B4B4BDA836
:1010C000CAA7B0DC0D0A0000C6F4B6AFC8CECEF198
:1010D000B4B4BDA8B3C9B9A60D0A0000FEE78842A2
:1010E00003DB904201DC002070470120704770470D
:1010F00009490A4800F014F8084D4FF0FF3605F191
:1011000014043146E86803F097FF28610128F8D1FC
:10111000204600F02FF8F4E7CC000020D434002063
:1011200070B505460C460DA002F0E8FAA5B19CB1D9
:101130004FF48E712846FFF76CF8204601220C49C7
:101140002C6001F0A7FC03220021012003F0D6FD52
:10115000E86008B1002070BD032070BDB3F5CABCC3
:10116000BBAFA3BAB5F7CAD4BFDA0D0A00000000BE
:101170009700002010B5040005D005220FA1FFF74D
:101180006DF818B117E04FF0FF3010BD0DA1601DD4
:10119000FFF774F878B1FFF7CCF800EB4001C1EB32
:1011A000C0104FF6FF7101EAC001074801804FF0FF
:1011B000006003F077FB012010BD000024203031D7
:1011C00020000000200D0A009C0000200024A346FF
:1011D000A2463149314802F07FF9304E304D42F29B
:1011E000107906F58E7800BF4FF0FF31F06803F0FC
:1011F00023FF30610128F7D1032C33D22878400631
:1012000030D44746D8F81400FFF7B2F900B24A4686
:101210000A21FFF764FF002839D1B869FFF7A8F960
:1012200000B24A460A21FFF75AFF80BBB8467F69E1
:1012300058463946FFF797F883465046D8F81810B5
:10124000FFF791F882463846FFF7ABF902460B46A6
:1012500014A002F053FA34211948FEF7DAFF641C97
:10126000E4B214E0174F58463946FFF7D4F8164C4D
:10127000394660615046FFF7CEF8A06103F076FB77
:10128000288840F04000288003F07EFB002421469F
:101290000EA002F033FAA7E714010020F035002079
:1012A000940000205669736962696C697479203111
:1012B0006D696E3A20252E3166206D0D0A00000002
:1012C0000C370020000040407C390020636E742001
:1012D0003D2025640D0A0000012000F019BA72B605
:1012E000FEE7000006490020C8610648016941F098
:1012F00004010161016941F0400101617047000092
:10130000A801002000200240064A0021D1610649C0
:101310000A6942F002020A614861086940F040002F
:1013200008617047A801002000200240044B002201
:10133000DA61044A136943F00103136101807047C5
:10134000A80100200020024014480022C168CB06FA
:10135000134904D5CA6942F00202CA611022C36867
:101360005B0705D5CB6943F00103CB6142F0040272
:10137000C369DB0707D0CB6943F00403CB61C169C4
:1013800021F00101C161A2F58071013901D0C26073
:101390007047C16921F00101C1617047002002401E
:1013A000A801002070B5054600F0B4FA0646114CBD
:1013B00009E0681C07D025B100F0ACFA801BA842F8
:1013C00001D9032070BDE068C007F2D1E068800653
:1013D00001D52020E060E068C00605D4E069C007C0
:1013E00002D1E068400703D5FFF7AEFF012070BDD2
:1013F000002070BD0020024030B5054687B00020B7
:101400000C4605900246069005A9114800F0C7FE5B
:10141000002206A90E4800F09BFE9DF81A000DF16F
:10142000040C9DF816309DF815209DF814108CE8DA
:101430000F009DF819009DF81B30009005A2214671
:10144000284603F5FA6302F069F907B030BD0000E1
:10145000B8000020253034642530326425303264F1
:1014600025303264253032642530326400000000BB
:1014700010B590F821100022022905D004218163C3
:1014800080F82020012010BD01680B6823F00E03B6
:101490000B6001680B6823F001030B6090F840308B
:1014A000C46B012101FA03F3636080F8211080F816
:1014B0002020104610BD000010B590F82110002427
:1014C000022903D00421816301243DE001680A68F8
:1014D00022F00E020A6001680A6822F001020A6026
:1014E0001A4A0168914201D1012121E0174A1432C0
:1014F000914201D110211BE0144A2832914201D1BE
:10150000891515E0114A3C32914201D189140FE04E
:101510000E4A5032914202D14FF4803108E00B4A1A
:101520006432914202D14FF4801101E04FF080719A
:10153000064A083A5160012180F82110002180F804
:101540002010416B01B18847204610BD08000240C1
:101550002DE9F047054626480F460126017E012960
:101560000FD00121814601762868DFF888804CF28F
:101570005034022808D0A2462046FFF713FFA8B136
:1015800031E00220BDE8F0872046FFF70BFF08BBE3
:101590000120FFF7A7FE2046FFF704FFD8F8101040
:1015A000064621F00401C8F810101CE04FF0FF308F
:1015B0003860AC6811E02046FFF7A6FE5046FFF702
:1015C000F1FED8F81010060021F00201C8F8101042
:1015D00001D03C6007E004F58064D5E9020100EB2E
:1015E0008120A042E7D8002189F818103046C9E7C9
:1015F000A8010020002002400348016941F0800159
:101600000161002070470000002002402DE9F05FDA
:1016100007461C4888460024017E15461E460129BF
:1016200009D00121814601764CF2503A5046FFF72D
:10163000B9FE18B122E00220BDE8F09F012F02D0D0
:10164000022F00D00427D346DFF83CA02201284611
:101650003146FEF7B5FD81B208EB4400FFF766FEA8
:101660005846FFF79FFEDAF8102022F00102CAF870
:10167000102018B9641CE4B2BC42E7D3002289F8F8
:101680001820D9E7A80100200020024006490020C8
:101690000A69120607D5054A4A60054A4A6009697F
:1016A000090600D50120704700200240230167454C
:1016B000AB89EFCD38B50021009101281FD1012160
:1016C0000F4800F021F978B90E4C2068401C2060CA
:1016D0000D496068FEF747FE21466060081F002341
:1016E0006A46006803F0F8FB0098002807D0074915
:1016F0004FF080500860BFF34F8FBFF36F8F38BD3E
:1017000000080140A4000020CDCCCC3D04ED00E059
:10171000044910B50A68024202D00860FFF7CAFF08
:1017200010BD0000140401402DE9F84FDFF8B89116
:101730000024A9F1040B23460F2709F1040AABF199
:10174000040EC9E00125A5402A40AA427DD1674E7A
:10175000D1F804C0ACEB0608B44532D014DCBCF1BF
:10176000030F3AD009DCBCF1000F2AD0BCF1010F05
:101770001CD0BCF1020F31D11DE0BCF1110F17D00C
:10178000BCF1120F2AD119E0B8F5881F19D006DC78
:10179000B8F5803F15D0B8F5801F1FD111E0B8F51E
:1017A000001F0ED0B8F5041F18D10AE0CB6815E071
:1017B000CB681B1D12E0CB6808330FE0CB680C33FD
:1017C0000CE08B682BB1012B4FF0080303D045616F
:1017D00004E0042302E0056100E00023FF2A01D8B1
:1017E000064601E000F104064FEA840501D9A5F19F
:1017F0002005D6F8008007FA05FC28EA0C0803FA51
:1018000005F548EA0508C6F800804D68ED0062D588
:10181000374DAE6946F00106AE61AD6924F00306AE
:1018200005F001050095334D06EB050CDCF808507A
:10183000A607360F07FA06F825EA0805DFF8B8808C
:10184000404503D14FF0000817E044E0DFF8AC80DA
:10185000404502D14FF001080FE0DFF8A480404579
:1018600002D14FF0020808E0DFF89880404502D12D
:101870004FF0030801E04FF0040808FA06F848EAC0
:101880000508CCF808804D68D9F80060ED024D4697
:1018900001D5164300E096432E604D68DAF80060EB
:1018A000AD02554601D5164300E096432E604D68C3
:1018B000DBF80060AD035D4601D5164300E09643BA
:1018C0002E604D68DEF80060ED03754601D51643C5
:1018D00000E096432E60641C0D682A46E5407FF4C4
:1018E00031AFBDE8F88F000008040140000011107E
:1018F000001002400000014000080140000C0140BF
:1019000000100140001401408068084000D0012010
:101910007047000001488068704700000000002008
:1019200002488168027811448160704700000020FD
:10193000074810B5016841F010010160032000F074
:101940009BF80F2000F006F800F04AF8002010BDC8
:101950000020024030B505461C4887B0816941F43B
:1019600000618161806906A900F40060009001A80F
:1019700000F0F8F900F026FA1549164AB0FBF1F12B
:101980001548491E0260416040F2E7320021C0E97B
:1019900003218160816100F0AAFD040012D10E488C
:1019A00000F0D4FD04000DD1192000F037F8102DFF
:1019B00007D200222946192000F03EF807480560AA
:1019C00000E0012407B0204630BD000000100240B6
:1019D00040420F00002C01405C0100200400002068
:1019E0000C4808B5816941F001018161816901F00C
:1019F00001010091C16941F08051C161C06900F0ED
:101A0000805000900448416821F0E06141F000718D
:101A1000416008BD0010024000000140002809DBC1
:101A200000F01F02012191404009800000F1E020F8
:101A3000C0F8001170470000F0B40E4B1B680C4654
:101A4000C3F30223C3F10705042D00D90425191D92
:101A5000072901D2002300E0DB1E012606FA05F16A
:101A6000491E214099409E40761E16403143F0BCED
:101A700001F06EBE0CED00E0064900F007020868B8
:101A80004FF6FF03184040EA0220034A1043086063
:101A9000704700000CED00E00000FA05014901204C
:101AA0000862704700000E4210B501460020234C2A
:101AB000012922D0022939D010291DD1616822685C
:101AC000D20119D51E48C1F38342C903805C0AD5EF
:101AD00061681B4AC1F34041921E515C194AB2FB36
:101AE000F1F1484301E0184948436168490203D4D1
:101AF00040000321B0FBF1F010BD226AC2F30121C6
:101B0000012903D1920701D5C80310BD022905D1CF
:101B1000626A920702D549F6404010BD0329FCD104
:101B200021688903F9D54FF2244010BD00F04AF92D
:101B30006168C1F38131491C4900DBE700100240B4
:101B40002C57000800127A0000093D002DE9F843E7
:101B500005460078354CC00754D0E0690026C00027
:101B600008D4E06940F08050E061E069012600F0AF
:101B7000805000902E480168C90512D40168804643
:101B800041F480710160FFF7C5FE074605E000BF24
:101B9000FFF7C0FEC01B642823D8D8F80000C0059A
:101BA000F6D5206A10F4407021D0A98801F4407164
:101BB00081421CD0206A1F49012220F440700A6033
:101BC00000220A602062C00711D0FFF7A3FE07467B
:101BD00041F2883808E000BFFFF79CFEC11B414579
:101BE00002D90320BDE8F883206A8007F4D5206A73
:101BF000696820F44070084320621EB1E06920F05B
:101C00008050E0612878800705D56068A96820F4D5
:101C10004040084360602878C00605D56068E968E0
:101C200020F48000084360600020DBE700100240E1
:101C300000700040400442422DE9F0470F46050085
:101C400061D0434E306800F00700B84209D23068D6
:101C500020F0070038433060306800F00700B842D9
:101C600051D128683B4C810712D5400703D56068E5
:101C700040F4E06060602878000703D5606840F4B5
:101C8000605060606068A96820F0F0000843606000
:101C90002878C00728D06868012810D02168022859
:101CA00010D0890700292EDA616821F00301014371
:101CB0006160FFF72FFE804641F288390DE0216810
:101CC0008903EFE78901EDE7FFF724FEA0EB0801A8
:101CD000494502D90320BDE8F0876068696800F0D3
:101CE0000C00B0EB810FEFD1306800F00700B84274
:101CF0000BD9306820F0070038433060306800F0BE
:101D00000700B84201D00120E5E72878400705D553
:101D10006068E96820F4E0600843606028780007A4
:101D200006D56068296920F4605040EAC10060600F
:101D300000F058F86168084AC1F30311515CC840CB
:101D40000649086006480068FFF704FE0020C2E765
:101D500000200240001002403C5700080C00002008
:101D6000040000200F2202600C4A536803F00303B2
:101D70004360536803F0F0038360536803F4E06347
:101D8000C36052684FF4E06303EAD2020261044880
:101D9000006800F007000860704700000010024073
:101DA000002002400448054900684968044AC1F31C
:101DB0000221515CC84070470C0000200010024016
:101DC0004C5700080448054900684968044AC1F3B3
:101DD000C221515CC84070470C0000200010024036
:101DE0004C5700080E4A51680E4801F00C03042BB2
:101DF00011D0082B0FD10C48C1F38343C903C05C39
:101E00000AD55168084AC1F34041921E515C054A07
:101E10005043B0FBF1F0704704494843704700005D
:101E20000010024000127A001A57000800093D0015
:101E30002DE9F84F040070D02078C04DC00749D07C
:101E40006868C0F38100012807D06868C0F381008A
:101E5000022809D16868C00306D52868800339D5EF
:101E600060680028E7D035E06068B0F5803F0BD0AF
:101E700010B1B0F5A02F11D0286820F48030286070
:101E8000286820F4802002E0286840F48030286030
:101E9000606890B1FFF73EFD06460AE0286840F40E
:101EA00080202860F0E700BFFFF734FD801B642826
:101EB00073D828688003F7D50CE0FFF72BFD0646A2
:101EC00005E000BFFFF726FD801B6428F0D82868D6
:101ED0008003F7D420789A4E80074FF001094FF025
:101EE000000839D5686810F00C0F07D06868C0F397
:101EF0008100022809D16868C00306D428688007D9
:101F000014D52069012808D110E02069B0B1C6F8C5
:101F10000090FFF7FFFC074605E00AE1FFF7FAFC37
:101F2000C01B0228C4D828688007F7D528686169D3
:101F300020F0F80040EAC10028600DE0C6F80080FB
:101F4000FFF7E8FC074604E0FFF7E4FCC01B0228AB
:101F500023D828688007F7D4207800072CD5794843
:101F6000A169D9B1C0F80090FFF7D4FC074604E09E
:101F7000FFF7D0FCC01B02280FD8686A8007F7D58E
:101F800071484FF4FA510068B0FBF1F0009000BFC7
:101F90000098411E0091FAD20EE080E0C0F8008067
:101FA000FFF7B8FC074604E0FFF7B4FCC01B0228AB
:101FB00075D8686A8007F7D42078400760D5E8694B
:101FC0000027C00008D4E86940F08050E861E86963
:101FD000012700F0805000905C480168C90513D4C7
:101FE0000168834641F480710160FFF793FC8246EB
:101FF00006E000BFFFF78EFCA0EB0A0064284ED875
:10200000DBF80000C005F5D5E06801280AD008B16A
:10201000052813D0286A20F001002862286A20F0E1
:10202000040002E0286A40F001002862E06841F202
:10203000883B98B1FFF76EFC82460BE0286A40F0BF
:1020400004002862EEE700BFFFF764FCA0EB0A0182
:1020500059455AD8286A8007F6D50CE0FFF75AFC94
:10206000824605E0FFF756FCA0EB0A0159454CD823
:10207000286A8007F6D41FB1E86920F08050E86133
:10208000E06988B36968C1F38101022944D002285C
:10209000C6F8608004D0FFF73DFC044638E034E029
:1020A000FFF738FC074604E0FFF734FCC01B0228AA
:1020B0002BD828688001F7D4206AB0F5803F05D17D
:1020C0006868A16820F4003008436860D4E908011A
:1020D0000843696821F4741108436860C6F8609089
:1020E000FFF718FC044606E025E000BFFFF712FCEE
:1020F000001B022809D828688001F7D51BE000BF23
:10210000FFF708FC001B022802D90320BDE8F88F66
:1021100028688001F4D40EE00128F7D06868226AAC
:1021200000F48031914204D1616A00F47010884259
:1021300001D00120EAE70020E8E70000001002409B
:1021400000004242800442420C0000200070004027
:10215000F8B505004FF0000016460C46009006D07A
:102160002CB100226946284600F019F808B1012078
:10217000F8BD287B2070E87BE070697B6170A97BEB
:10218000A17056B100F04DFEE070607800F049FE9D
:102190006070A07800F045FEA0700020F8BD2DE929
:1021A000F04791460C465FEA00084AD084B3D8F85D
:1021B00000004068400744D4404600F0D1FE4FF490
:1021C00061620546B0FBF2F1B0FBF2F302FB135083
:1021D0003C23B0FBF3F0B5FBF2F6607002FB165047
:1021E000B0FBF3F203FB1200A070182931D31820C2
:1021F000B1FBF0F7B1FBF0F200FB1210207040468B
:1022000000F0A7FE411C04D0A84202D9461B02E000
:1022100017E04FF0FF36A7EB071000EB4000C0EBD4
:10222000001005EBC0152946404600F0E8FE40B915
:10223000701C01D0711900E03146404600F0CBFE21
:1022400010B10120BDE8F0873946404600F0F4FDAA
:1022500000E02170B9F1000F0BD0207800F0E1FD13
:102260002070607800F0DDFD6070A07800F0D9FD8E
:10227000A0700020E6E7000070B5040003D0607C89
:10228000002610B105E0012070BD2674204600F044
:102290003DF802206074204600F00AF9042550BB86
:1022A000204600F020FE30BB2068416821F0070185
:1022B0004160A06820B11448016821F0010101606B
:1022C0001148001F0168A26821F460711143016088
:1022D0006068411C04D10120FFF7E6FB58B1401EA5
:1022E0002268C0F303419160216880B2C860204633
:1022F00000F014FE08B16574C5E7E6730120607351
:10230000A0736074002070BD306C004008B5006898
:10231000084988420DD1FFF7C1FB0748C16941F068
:102320000061C161C069054900F0006000900120B2
:10233000086008BD00280040001002403C044242F2
:102340002DE9F0410D4604003BD0C5B3207C0128A7
:102350003AD04FF0010884F8108002206074E878C9
:1023600072B300F055FDE073687800F051FD6073C2
:10237000A87800F04DFDA073C2B2617BE07B00F055
:10238000FFFD20732870204600F0EAFD4FF46161E4
:10239000B0FBF1F1002518292DD91822B1FBF2F17B
:1023A000A1EB011101EB4101C1EB011100EBC116E1
:1023B0003146204600F023FE0427C8B90BE000E0B8
:1023C00004E00120BDE8F0810220FBE7E0736878BB
:1023D0006073A878CFE7204600F0BBFD411C0AD00F
:1023E000B04208D206490144204600F0F4FD10B185
:1023F00067742574E5E784F8118025740020E1E70F
:10240000805101002DE9F0410D46040024D01DB398
:10241000207C012823D04FF0010884F8108002208E
:1024200060742878EAB100F0F3FC4FF4616100FBBE
:1024300001F6687800F0ECFCC0EB001006EB8006BB
:10244000A87800F0E5FC35182946204600F0D7FDB5
:102450000026042710BB0FE00120BDE8F081022018
:10246000FBE74FF4616148436978C1EB011100EB70
:102470008100A9784518E7E72068416821F0050147
:102480004160204600F065FD411C0AD0A84208D2F8
:1024900006490144204600F09EFD10B16774267481
:1024A000DAE784F8118026740020D6E78051010015
:1024B00070B504000AD02068416821F0080141602D
:1024C000FFF728FA05464FF47A7608E0012070BD40
:1024D000FFF720FA401BB04201D9032070BD2068ED
:1024E00040680007F4D5002070BD7047704710B5F4
:1024F000040003D094F83D0010B107E0012010BDA6
:10250000002084F83C00204600F01EF8022084F8E9
:102510003D00211D206800F05BFE012084F846008C
:1025200084F83E0084F83F0084F8400084F84100BD
:1025300084F8420084F8430084F8440084F845009D
:1025400084F83D00002010BD7047000090F83D1059
:10255000012901D001207047022180F83D10016857
:10256000CA6842F00102CA6000680B49884208D07C
:10257000B0F1804F05D00949884202D0084988420D
:1025800004D1816801F00701062903D0016841F0F8
:102590000101016000207047002C01400004004050
:1025A0000008004070472DE9F04104460068C66805
:1025B00005694FF00007A90713D5B10711D5F91E1A
:1025C000016101202077206880698007204602D0C1
:1025D000FFF7E8FF04E000F07EF8204600F07CF80A
:1025E0002777680716D5700714D521686FF00400A7
:1025F0000861022020772068806910F4407F20461F
:1026000002D0FFF7CFFF04E000F065F8204600F0AD
:1026100063F82777280715D5300713D521686FF0A1
:1026200008000861042020772068C06980072046E0
:1026300002D0FFF7B7FF04E000F04DF8204600F0AD
:102640004BF82777E80616D5F00614D521686FF009
:1026500010000861082020772068C06910F4407FCE
:10266000204602D0FFF79EFF04E000F034F8204639
:1026700000F032F82777E80708D0F00706D0216885
:102680006FF001000861204600F028F8280608D500
:10269000300606D521686FF0800008612046FFF7FC
:1026A00024FF680608D5700606D521686FF0400043
:1026B0000861204600F01CF8A8060AD5B00608D527
:1026C00021686FF0200008612046BDE8F041FFF767
:1026D0000DBFBDE8F08170477047000000680349F6
:1026E000884201D1FFF71CB970470000002C01405F
:1026F0007047704770470000F8B5016804460868E5
:10270000CA684B6910F00F0F4FF0000559D003F065
:10271000010602F49077374365D0C10705D0D10593
:1027200003D5616C41F001016164410705D5D9070A
:1027300003D0616C41F002016164810705D5D907BE
:1027400003D0616C41F004016164010707D502F018
:102750002001314303D0616C41F008016164616C78
:1027600000293AD0800604D5900602D5204600F014
:102770009AFD20684069616CC0F38010090700D49D
:1027800060B3204600F068FD20684069400621D50E
:102790002068143050E8001F21F0400140E800128A
:1027A000002AF5D1E06BA8B16D494163E06BFEF7FB
:1027B00083FE002811D0E06B416B01B0BDE8F04012
:1027C000084783060FD593060DD52046BDE8F8408F
:1027D00000F069BD2046FFF78DFFF8BD2046FFF7EA
:1027E00089FF6564F8BD266B2023012E7CD1C606C7
:1027F0007AD5D60678D508684868009048694FF0C1
:102800000206400640D5E16B086840680004000CF1
:10281000E8D0A28D8242E5D9E085886920282DD0B4
:1028200020680C3050E8001F21F4807140E800124D
:10283000002AF5D12068143050E8001F21F0010172
:1028400040E80012002AF5D12068143050E8001F3B
:1028500021F0400140E80012002AF5D184F842300E
:10286000256320680C3050E8001F21F0100140E87B
:102870000012002AF5D1E06BFEF7FAFD6663A08D29
:10288000E18D401A81B22AE0A08DE18D401A81B21B
:10289000E08D0028A6D00029A4D022680C3252E88E
:1028A000000F20F4907042E80007002FF5D1206857
:1028B000143050E8002F22F0010240E80027002FDA
:1028C000F5D184F84230256320680C3050E8002FA1
:1028D00022F0100240E80023002BF5D16663204669
:1028E000FFF707FFF8BDFFE705062BD5150629D52D
:1028F00094F841002128F5D1A068B0F5805F01D19E
:102900002069B0B1206A411C2162216800784860CA
:10291000E08C401E0004000CE084E3D12068C16814
:1029200021F08001C1602068C16841F04001C160B0
:10293000D8E7206A0088C0F308004860206A801C3D
:102940002062E5E74006CDD55006CBD5CA682046C3
:1029500022F04002CA6084F8413000F0C7F9C1E7B4
:102960004932000870B5040004D094F841000025F5
:1029700010B106E0012070BD84F84050204600F000
:1029800023F8242084F841002068C16821F4005114
:10299000C160204600F0E8FC2068016921F4904104
:1029A00001612068416921F02A0141612068C16804
:1029B00041F40051C1606564202084F8410084F82E
:1029C00042006563002070BD70B586B0002400949D
:1029D0000194029403942B4E03682B490220032296
:1029E0002A4DB34221D18B6943F480438B618B69BB
:1029F00003F4804304938B6943F004038B6189697A
:102A0000039201F0040104910102CDE9001069462E
:102A10002846FEF789FE2815CDE9000469462846B8
:102A20000294FEF781FE06B070BD194EB342FAD192
:102A3000CB6943F40033CB61CB6903F400330493D7
:102A40008B6943F004038B618969039201F00401EF
:102A500004910421CDE9001069462846FEF764FE82
:102A60000820CDE90004694628460294FEF75CFE82
:102A7000002211462620FEF7DFFF2620FEF7CEFFBC
:102A8000D1E700000038014000100240000801407A
:102A90000044004090F84230202B01D002207047C3
:102AA00021B11AB10023036300F0BABC01207047C2
:102AB0002DE9F04105465F4800265F4F4FF48078CE
:102AC000854229D15D4C04F11400B4F81411FF299A
:102AD00005D34146FDF79DFBA4F8146117E03A7851
:102AE0000A54B4F814015549401C80B21331A4F8BB
:102AF0001401415C0A290AD150491231405C0D2869
:102B000005D100231A461946606802F069F90122CE
:102B100049492068FFF7BEFF494C2068A84229D1E7
:102B2000B4F8141104F11400FF2905D34146FDF750
:102B300070FBA4F8146117E07A780A54B4F8140111
:102B40003F49401C80B21331A4F81401415C0A29AA
:102B50000AD13B491231405C0D2805D100231A46A9
:102B60001946606802F03CF933490122491C20688B
:102B7000FFF790FF334C2068A84229D1B4F8141114
:102B800004F11400FF2905D34146FDF742FBA4F8E8
:102B9000146117E0BA780A54B4F814012949401CAA
:102BA00080B21331A4F81401415C0A290AD12549E5
:102BB0001231405C0D2805D100231A461946606881
:102BC00002F00EF91C490122891C2068FFF762FF00
:102BD0001D4C2068A8422BD1B4F8181104F118003C
:102BE000FF2905D34146FDF714FBA4F8186117E04F
:102BF000FA780A54B4F818011349401C80B217310E
:102C0000A4F81801415C45290AD10F491631405CEE
:102C1000442805D100231A461946A06802F0E0F8BE
:102C20002068BDE8F04104490122C91CFFF732BF0A
:102C3000BDE8F081CC00002096000020D4340020B4
:102C4000F0350020403700205C3800202DE9F843A3
:102C5000044690F84100984616460D46202802D0BA
:102C60000220BDE8F88385B17EB100206064212098
:102C700084F84100FEF74EFEA6848146E684A068F3
:102C80002027B0F5805F02D003E00120E9E720694A
:102C900010B12E4600250EE000260CE080212046D3
:102CA00000F0D9FBA8B9C6B116F8010B216848603D
:102CB000E08C401EE084E08C4B464FF00002CDF8E3
:102CC00000800028EAD14FF04001204600F0C3FB0D
:102CD00040B184F841700320C3E735F8020BC0F31C
:102CE0000800E3E784F841700020BAE77047FEE788
:102CF0000D4808B5816941F010018161816901F0D9
:102D000010010091816941F020018161816901F028
:102D100020010091816941F004018161806900F026
:102D20000400009008BD0000001002407CB50024A3
:102D300019480194174900940160611EC0E901140B
:102D4000FFF79AFA08B1FEF7CAFA21208DF80400BD
:102D500025258DF805508DF80640012201A90E4861
:102D6000FFF750FB08B1FEF7BAFA8DF800400320D8
:102D70008DF8010009208DF802008DF80350012222
:102D800069460548FFF7DCFA002801D0FEF7A7FAEC
:102D90007CBD000000280040B80000200C4810B5A1
:102DA0000A4901604FF4E1314160002181600C2249
:102DB000C160C0E904128161C161FFF7D3FD002841
:102DC00003D0BDE81040FEF78ABA10BD00380140BC
:102DD000CC0000200C4810B50A4901604FF4E131E5
:102DE0004160002181600C22C160C0E90412816150
:102DF000C161FFF7B7FD002803D0BDE81040FEF722
:102E00006EBA10BD0044004014010020FEE7FEE74A
:102E1000010901EB810100F00F0000EB4100C0B29D
:102E20007047002102E00A38C0B2491C0A28FAD2D1
:102E3000090740EA116070472DE9F041044600257A
:102E4000C07B627BA37B42E0012A16D0032A14D008
:102E5000052A12D0072A10D0082A0ED00A2A0CD030
:102E60000C2A0AD0042A10D0062A0ED0092A0CD027
:102E70000B2A0AD0022A0DD028E01F2B0CD30C2AD3
:102E800005D101221346401C20E01E2B04D3012350
:102E9000521C1BE01C2B02D203F1010316E011D1DE
:102EA00083B29E0710D16426B3FBF6F706FB1736F4
:102EB00036B94FF4C876B3FBF6F706FB17331BB9E8
:102EC0001D2303E01D2B01D1032201236D1C8D4224
:102ED000BAD3D1B2E0736173DAB2A27300F050F8E2
:102EE0002073BDE8F08170B50446FEF713FD05467A
:102EF0004FF47A7606E0FEF70DFD401BB04201D993
:102F0000032070BD206840688006F4D520684168C1
:102F100041F010014160002070BD000070B5044612
:102F20000068416821F010014160FEF7F3FC05469E
:102F30004FF47A7607E000BFFEF7ECFC401BB0428E
:102F400001D9032070BD206840688006F4D50020B8
:102F500070BD0168086A496A89B241EA0040704759
:102F6000006881698AB2C1698BB2816989B28A427B
:102F700003D0C06961F31F40704743EA02407047C5
:102F8000F0B56424C1EBC1030927A500072603EBB4
:102F900001130329B3FBF7F100F5FA601144014472
:102FA0000AD2401EB0FBF4F201EB9001B0FBF5F049
:102FB000891A0844001D08E0B0FBF4F201EB90010F
:102FC000B0FBF5F0891A0844801CB0FBF6F106FB53
:102FD0001100C0B2F0BD70B50D4606460024FFF7E3
:102FE00082FF48B93168280C08623168A8B248628B
:102FF0003046FFF793FF00B10124204670BD70B545
:103000000D4606460024FFF76EFF48B93168280CCC
:1030100088613168A8B2C8613046FFF77FFF00B110
:103020000124204670BD000008B502F02DF90D4CBA
:103030000D4E4FF0FF3700250090208840280AD120
:103040000AA000F05BFB01F045F83B4620220A494C
:103050000A48FFF7FBFD25803188684602F0DAF860
:10306000EBE70000940000209C000020B7A2CBCD2D
:10307000CAFDBEDD0D0A00007C390020CC00002016
:103080007CB516A000F03AFB17480A24CDE90040B1
:103090000023802215A1184802F08EF81249092059
:1030A000091DCDE900014FF4807500232A4613A1C4
:1030B000154802F081F80C4800230830CDE90040A3
:1030C0002A4612A1154802F077F8002001F0B6FC5C
:1030D000BDE87C4012A000F011BB0000BFAACABC32
:1030E000B5F7B6C80D0A0000880000204465627577
:1030F000675461736B000000F1100008446E713476
:103100007633305461736B00CD11000844617461F3
:1031100053656E645461736B000000002930000831
:10312000B2BBBBE1D6B4D0D00D0A000010B502F09E
:103130009DF8012803D0BDE8104001F0C9BD10BDC5
:1031400070B594B028216846FDF763F814210AA8E9
:10315000FDF75FF800250F950920012410950090D8
:10316000119512954FF4803004940694CDE9010531
:103170000226CDE907604FF4E01009906846FEF79B
:1031800057FE08B172B6FEE70F20CDE90A064FF4EC
:103190008060CDE90C5002210AA80E95FEF74CFD87
:1031A00008B172B6FEE74FF40070CDE90F400FA8EA
:1031B000FEF7CCFC002801D072B6FEE714B070BD5B
:1031C000704700000148FFF7EEB900005C010020E5
:1031D000F0B50268194B1A4C1A4D4FF080479842CF
:1031E00005D0B84203D0A04201D0A84203D122F0BA
:1031F00070064A683243984205D0B84203D0A042D4
:1032000001D0A84203D122F44074CA6822434C6919
:1032100022F08002224302608A68C2620A688262E7
:10322000984201D109690163012141610169C9071E
:1032300003D0016921F001010161F0BD002C0140C2
:10324000000400400008004010B5406A0021C1851C
:10325000C184FFF74FFA10BD01680C3151E8002F0F
:1032600022F4907241E80023002BF5D1016814315B
:1032700051E8002F22F0010241E80023002BF5D194
:10328000016B012909D101680C3151E8002F22F0AE
:10329000100241E80023002BF5D1202180F84210D4
:1032A00000210163704708B590F84210222901D02F
:1032B000022008BD82684FF480539A4201D101690F
:1032C00021B1816A9A421BD04AB10AE00268816A40
:1032D0005268C2F308020A80816A891C08E0026908
:1032E00072B10268526802F07F020A70816A491C5A
:1032F0008162C18D491E0904090CC18503D01BE000
:1033000002685268F1E70168CA6822F02002CA60C8
:103310000168CA6822F48072CA6001684A6922F0B2
:1033200001024A61202180F8421000214163026BB2
:10333000012A03D0FFF7BCFB002008BD0163016830
:103340000C3151E8002F22F0100241E80023002B3D
:10335000F5D101680A68D20602D50A684968009169
:10336000818DFFF7C6F9E7E770B50446006801698B
:10337000E26821F44051114301612169A0680843CA
:10338000616908432168CA6841F20C639A430243A9
:10339000CA6020684169A26921F44071114341610A
:1033A0001E492068884202D1FEF70CFD01E0FEF7BD
:1033B000F9FC00EBC00101EB0012606864218000A1
:1033C000B2FBF0F3B3FBF1F36FF018067343B2FBFB
:1033D000F0F5B2FBF0F605EB8305322303EB0515A0
:1033E000B5FBF1F5B6FBF1F605F0F00505EB0615BA
:1033F000B2FBF0F6B2FBF0F0B0FBF1F06FF01802A8
:10340000504306EB800003EB0010B0FBF1F02168A5
:1034100000F00F002844886070BD000000380140B3
:1034200081628285C28500214164222180F8421098
:10343000016921B10168CA6842F48072CA600168FA
:103440004A6942F001024A610068C16841F0200106
:10345000C160002070472DE9F843984617460D4695
:103460000446089E24E0701C22D0FEF753FAA0EB1D
:103470000800B0421AD8CEB12068C168490717D5F4
:10348000802D15D0402D13D00168C94309070FD4F2
:1034900001680025406800902046FFF7DDFE082007
:1034A000606484F840500120BDE8F8830320FBE706
:1034B0002068006835EA000004D00020B842D2D06D
:1034C0000020F1E70120F9E70148FFF715B90000F6
:1034D00014010020FEE700007CB504460D4618A04C
:1034E00000F00CF954B34DB34FF48E712046FCF745
:1034F00090FE2846012217492560FFF7CBFA0322E8
:103500000021012001F0FAFBE060B8B103220021A4
:10351000012001F0F3FB606080B10FA000F0EEF835
:103520000A2004F58C74CDE9000400234FF4807266
:103530000EA1134801F040FE00207CBD03207CBD9D
:10354000B3F5CABCBBAFA3BAC4DCBCFBB6C8D2C718
:103550000D0A000097000020B4B4BDA8CAFDBEDD6E
:10356000B4A6C0EDC8CECEF10D0A0000444E515FA6
:10357000444154415F50524F4345535300000000B3
:10358000B13600082DE9F0410E460446032244A15D
:10359000FCF764FE10B10320BDE8F08141A1204694
:1035A000FCF76CFE0024002877D03F4D6AE0112C18
:1035B00068D2DFE804F067090E12192467672F3A12
:1035C00045506767675662003846FCF7BFFE3060BB
:1035D00058E008223946301D03E00622394606F13C
:1035E0000D00FCF721FE4DE0384600F039FD0022C9
:1035F0002B46FCF74EFFFCF7E7FF706142E03846D0
:1036000000F02EFD00222B46FCF743FFFCF7DCFF09
:10361000B06137E0384600F023FD00222B46FCF76E
:1036200038FFFCF7D1FFF0612CE0384600F018FDC0
:1036300000222B46FCF72DFFFCF7C6FF306221E08D
:10364000384600F00DFD00222B46FCF722FFFCF768
:10365000BBFF706216E03846FCF778FE86F828005B
:1036600010E012A13846FCF7EBFD20B1102200213A
:103670003846FCF725FE306304E01022002138466E
:10368000FCF71EFE07A10020FCF7F8FD04F1010481
:103690000700E4B201D0122C89D300207CE700009F
:1036A0005649530020000000000024402F00000075
:1036B000104CA0B04FF0FF3704F114050026394636
:1036C000606801F0B9FCA0600128F8D1B4F81421B9
:1036D00029466846FCF784FD07496846FFF752FF14
:1036E00028B900231A461946E06801F079FBA4F8CE
:1036F0001461E4E7F03500200C3700200FB4054BCF
:1037000010B503A9044A029800F01CF910BC5DF83A
:1037100014FB00009D400008B00000200FB47CB5F1
:103720000C0009AD01D0611E00E00021CDE90001CF
:10373000064B6A462946089800F004F9002C02D08E
:10374000009A002111707CBC5DF814FB4B4000080E
:103750000907090E002804DB00F1E02080F80014BE
:10376000704700F00F0000F1E02080F8141D704752
:1037700000487047B400002001480068704700000E
:10378000B400002002E008C8121F08C1002AFAD1C4
:1037900070477047002001E001C1121F002AFBD1D1
:1037A000704700000149086070470000B400002025
:1037B0002DE9FF5F82B00021DDE90430020DDDF864
:1037C00040B0034318D044F61050A2F2FF324243F7
:1037D0001514119801281FD0A5EB0B00401C5FEABF
:1037E000000A4FF000064E4FDFF83891B0465046C1
:1037F00015D5CAF1000413E0119801244AA3012849
:1038000001D16FEA0B010298119AC0E90031C0E9B9
:10381000024206B0BDE8F09FCBF10000DFE70446AE
:103820000021404A491842EB0450CDE9001012E053
:10383000E00707D032463B4640464946FDF745F98A
:103840008046894632463B4610461946FDF73DF90B
:1038500006460F466410002CEAD1DDE90401DDE9DB
:103860000023BAF1000F06DAFDF72FF942464B4666
:10387000FDF72BF905E0FCF70CFE42464B46FCF742
:1038800008FE04460E460022284BFDF7A9F903D88E
:103890004FF0FF30014607E00022254B204631461D
:1038A000FDF76CF8FDF783F9102409E0002C0ADB22
:1038B0000A220023FCF7BAFE039B30321A55641E1D
:1038C00050EA0102F2D1641C039AC4F111031444BA
:1038D000119A012A03D0012208430DD10AE00843BE
:1038E00004D000204FF0110B119072E7A3EB0B05F1
:1038F0006D1E0DE05B4504DD4FF0000205F1010592
:1039000004E003DA4FF00002A5F10105002AECD033
:1039100002981199C0E90231C0E9004579E7000039
:10392000000014400000F03F300000000000F043B1
:103930000000E03F30380A2801D201207047002003
:10394000704700002DE9FF4F95B09A46884606461D
:103950000025EEE1252877D100242746F94A0121E8
:10396000039400E0044316F8013F203B01FA03F002
:103970001042F7D130782A2811D06FF02F03307819
:10398000A0F13002092A16D8039A44F0020402EB8F
:10399000820203EB42021044761C0390EFE758F8D2
:1039A000042B0392002A03DA504244F4005403909B
:1039B00044F00204761C30782E2816D116F8010F38
:1039C00044F004042A280DD06FF02F023078A0F1C3
:1039D0003003092B09D807EB870302EB4303C71811
:1039E000761CF3E758F8047B761C30786C280FD0EF
:1039F00006DC4C2817D068280DD06A2814D104E0C2
:103A0000742810D07A280FD10DE044F400140AE095
:103A100044F4801401E044F440147278824202D1EC
:103A200004F58014761C761C307866280BD013DCE5
:103A3000582877D009DC002875D04528F6D04628CC
:103A4000F4D047281AD193E118E0632835D06428D0
:103A500079D0652812D18BE1702873D008DC6728F3
:103A6000F1D069286FD06E280DD06F2806D1ACE058
:103A700073282CD0752874D0782853D052461799C3
:103A800090476D1C54E1C4F30250022809D003286A
:103A90000DD0D8F8001004280DD00D6008F10408EE
:103AA00046E1D8F80010EA17C1E90052F6E7D8F865
:103AB00000100D80F2E70D70F0E718F8041B8DF888
:103AC000001000208DF80100EB46012003E058F8BB
:103AD00004BB4FF0FF3061074FF0000102D40DE04E
:103AE00009F101018946B9420FDA8145F8DB1BF87B
:103AF00009100029F4D108E009F101018946814249
:103B0000FADB1BF809100029F6D103985346A0EB05
:103B1000090721463846179A00F080FA284400EB3E
:103B2000090507E044E008E10DE01BF8010B5246EF
:103B300017999047B9F10109F7D253462146384603
:103B4000179AF2E039E00A21C4F302524FF0000B59
:103B50000091022A06D058F8040BC117032A09D095
:103B60000AE023E008F1070020F00702F2E8020172
:103B7000904605E000B2C117042A01D140B2C11736
:103B8000002906DA0A460021404261EB02012D229B
:103B900002E0220504D52B228DF80420012203E047
:103BA000E20701D02022F7E7914657E00A2100E022
:103BB00010214FF0000B00910BE010214FF0000B93
:103BC00044F004040827009103E008204FF0000BA4
:103BD0000090C4F30252022A05D058F8040B0021C9
:103BE000032A08D008E008F1070020F00702F2E8F5
:103BF0000201904603E080B2042A00D1C0B24FF027
:103C0000000922072AD53278702A07D0DDF800C0D3
:103C10008CF0100C5CEA0B0C05D00EE040228DF805
:103C20000420012208E050EA010306D030238DF879
:103C300004308DF8052002229146009B83F0080392
:103C400053EA0B030AD150EA010201D1620705D5FC
:103C500030228DF804204FF001097F1E3278582A57
:103C600004D039A20C920CAA02920BE03BA2F9E715
:103C70005B46009AFCF7DAFC0C9B9B5C029A521E96
:103C80000292137050EA0102F2D1029804A9081AB4
:103C900000F1200B600702D524F4803400E00127F6
:103CA0005F4502DDA7EB0B0000E0002000EB0B01FD
:103CB000009003984944401A0390E00306D4534609
:103CC0002146179A039800F0A9F90544002706E059
:103CD00001A85246C05D179990476D1C7F1C4F4547
:103CE000F6DBE0030CD553462146179A039800F003
:103CF00095F9054404E030205246179990476D1C11
:103D00000099481E00900029F5DC08E0029802990D
:103D100052460078491C0291179990476D1CBBF1DF
:103D20000001ABF1010BF1DC5BE100F065F905444A
:103D3000761C307800287FF40DAE19B02846BDE817
:103D4000F08F000009280100303132333435363726
:103D500038396162636465660000000030313233D7
:103D60003435363738394142434445460000000077
:103D7000600700D4062708F1070020F00700F0E8EC
:103D80000223804603F0004C5FEA0C0001D097A0AC
:103D900009E0200501D596A005E0E00701D095A037
:103DA00001E0AFF24C001390307823F00043652817
:103DB0000CD006DC452809D046281DD047287FD1E5
:103DC0003BE0662818D067287AD136E00021112F11
:103DD00001DB112000E0781CCDE9000104A90CA84A
:103DE000FFF7E6FCDDE90D010C9A4FF0000B07F13F
:103DF0000109109200914EE04FF000400097CDE98C
:103E0000011004A90CA8FFF7D3FCDDE90D020C9BFF
:103E10000F994FF0000B91461093009211B9791C45
:103E200000EB0109B7EB090003D4C0F1FF3B07F138
:103E30000109A9EB0700019042E0012F00DA0127F8
:103E40000021112F01DD112000E03846CDE90001ED
:103E500004A90CA8FFF7ACFCDDE90D010C9A009158
:103E60004FF0000BB946109221070FD4009A4A4533
:103E700003DA914601E0A9F10109B9F1010F05DD6D
:103E8000109AA9F10101515C3029F4D0B84202DA4C
:103E900010F1040F03DA0121CDE9011010E0002830
:103EA00003DC8344A9EB000102E0411C494500DD2D
:103EB0008946A0EB0B00401C01904FF0004002909F
:103EC000200705D40198484502DB4FF0FF300190F0
:103ED00000208DF84B0002980DF14B07B0F1004F18
:103EE00025D002200C902B200D90029800280CDA8F
:103EF000404202902D200D9007E00A210298FCF725
:103F00007FFB3031029007F8011D0C99481E0C9080
:103F10000029F2DC02980028EFD1791E0D98087074
:103F2000307800F0200040F0450007F8020D11A89D
:103F3000C01BC01D02901398007800B1012000EB57
:103F40000901019801EBE071029801440398401ABD
:103F5000401E0390E00306D453462146179A039867
:103F600000F05CF805441398007818B15246179990
:103F700090476D1CE00323D553462146179A0398BA
:103F800000F04CF805441BE0BBF1000F07DB009884
:103F9000584504DD1098179910F80B0001E01799A7
:103FA00030205246904701980BF1010B401E05F15D
:103FB0000105019004D12E205246179990476D1C9F
:103FC000B9F10001A9F10109DEDC05E017F8010BE8
:103FD0005246179990476D1C0299481E029000297D
:103FE000F4DC53462146179A03989EE62D00000004
:103FF0002B000000200000002DE9F04104460025C0
:104000001E461746880404D405E039462020B047F0
:104010006D1C641EF9D52846BDE8F0812DE9F041FC
:10402000044600251E469046C80301D5302700E00F
:104030002027880404D505E041463846B0476D1C6A
:10404000641EF9D52846BDE8F0814A68002A06D0EA
:104050000A68531C0B6010704868401E4860704727
:1040600030B583B00446FFF787FB05460020CDE955
:104070000000024621466846FCF781FB2846FFF710
:1040800091FBDDE9000103B030BD0246002001468E
:10409000535C491C58401E29FAD3704713B54FF49E
:1040A0007A73012269460248FEF7D0FD00981CBDD4
:1040B000CC000020FDF73CFCFFF742F8FEF718FEAD
:1040C000FEF76CFEFEF786FEFEF730FEFCF7BEFF45
:1040D000FEE7000010B5084CAA200F212070601CDC
:1040E000FDF78AF92046FFF7D0FF207703480079D3
:1040F00020745520607710BD7C3900209600002088
:104100002DE9F0411E4C0F460546E6682068001D6B
:1041100000F0E1FB38B9206890F82C1001208840AD
:10412000216981432161681C15D1A7B11549226815
:104130004868906023688268DA6022688368121D8C
:104140005A602268121D8260206841610868401C24
:104150000860BDE8F08120683544B54245602168BB
:1041600005D2E06BBDE8F041091D00F0DBBBA06BA0
:10417000091D00F0D7FBA06A8542EAD2A562E8E7F4
:1041800030000020983400202DE9F041054600F071
:10419000EDFB354CA068401CA0602068334F10B187
:1041A000606930B32BE02560A068012827D1002684
:1041B00006EB860007EB800000F0A6FB761C202EA5
:1041C000F6D32B4800F0A0FB2948143000F09CFBEC
:1041D0002748283000F098FB25483C3000F094FB3D
:1041E0002348503000F090FB2148A0631430E06376
:1041F00005E02068E96AC06A884200D82560606AE4
:10420000401C60626864E96A0120226988401043AA
:10421000206101EB810007EB80004068A8608168A5
:10422000E9608268291D51608160E86A00EB8000C6
:1042300007EB8001696157F82010491C47F82010EE
:1042400000F0A2FB606900280CD02068E96AC06A0F
:10425000884207D207494FF080500860BFF34F8F64
:10426000BFF36F8FBDE8F08130000020C83100201F
:104270004834002004ED00E010B500F077FB0C4C52
:10428000206880B90B4800F03FFB0A48143000F06A
:104290003BFB0848E0601430206100220C21022022
:1042A00000F02CFD2060BDE8104000F06DBB000068
:1042B00070000020AC34002030B4026C0B46002AA1
:1042C0000BD0C1681144C1608468A14201D3016868
:1042D000C16030BC1846FBF783BF30BC70472DE986
:1042E000F041856B174604460026026C82B1C7B1C7
:1042F000E068FBF775FFE168206C091AE16022684D
:10430000914202D2A168081AE060022F16D017E08D
:104310002068A8B9A06801F04FF806460020A06008
:104320000EE06068FBF75CFF216C60680844606029
:10433000A168884204D32068606001E005B16D1E69
:104340006D1CA5633046BDE8F08110B50446006BD6
:1043500000F024FB2046BDE8104000F01FBB000029
:104360000E484FF44051420706D0C01D0B4920F0C3
:104370000700411AC1F54051094A00230144C2E92E
:1043800000030839143A21F0070111604B600B60FB
:104390000B1AC0E90013936053607047C8010020F6
:1043A00028000020144E154CA6F52F774FF08058AA
:1043B000DFF84C9012E000BF00F0D8FAF068C56852
:1043C000281D00F088FAA068401EA0606068401EAA
:1043D000606000F0D9FA2846FFF7B7FF6068002850
:1043E000EAD138680128F9D9C9F80080BFF34F8FA6
:1043F000BFF36F8FF2E7000084340020300000200C
:1044000004ED00E02DE9F0470E46DDE9098417468A
:10441000824691009946089DA522206BFBF7F2FE8B
:104420006FF00301206B01EB8701084420F00707C0
:1044300066B100202218315C82F83410315C11B171
:10444000401C1028F6D3002084F84300202D00D310
:104450001F25E562201DE56400F061FA04F11800F3
:1044600000F05DFA2461C5F120006462A0614A4653
:104470005146384600F004FA2060B8F1000F01D030
:10448000C8F80040BDE8F08730B5114900E011469A
:104490000A688242FBD34B685C18844203D14068AF
:1044A00018444860084643681C18944209D1084CD7
:1044B000143C2468A24209D052681A4442600A6837
:1044C00012680260814200D0086030BD0460F9E7E4
:1044D0002800002070B5002441600B4D006191421E
:1044E00006D8D11A8269914206D2011D286907E0D7
:1044F0009A4203D2994201D3012403E0011DE868E6
:1045000000F010FA204670BD7000002010B504467F
:1045100000F02CFAA06B28B15FF0000400F034FA30
:10452000204610BD0124F9E770B506460D480D463A
:10453000C068C068C468201D00F0CDF994F8280058
:10454000410705D52A463146204600F0ABF803E086
:1045500000F0FE0084F828002046216ABDE8704083
:1045600008470000700000207FB5324E5AE00098E6
:10457000002857DB029C606910B1201D00F0ABF9E8
:1045800003A800F0B1F8054600980A284AD2DFE8EF
:1045900000F0490505282E3D0505282E94F8280031
:1045A0002A4640F0010084F828000199A069019B87
:1045B00001442046FFF78EFF38B394F828004107E6
:1045C00007D50198A1692A460144204600F06AF8FF
:1045D00003E000F0FE0084F82800216A20468847A6
:1045E00020E014F8280F00F0FE0020701AE094F884
:1045F00028002B4640F0010084F828000198A061B3
:1046000041191A462046FFF765FF0BE094F8280091
:10461000810703D4204600F0C1F903E000F0FE005A
:1046200084F8280000226946306800F08DFC0028DC
:104630009DD17FBD70000020F8B50D46064600F004
:1046400005FB684600F050F80446009810B100F0F1
:10465000B7FFF8BD1148ADB101690968D9B10025AE
:10466000311B2A46006800F0C7F900F0A9FF0028B6
:10467000EFD10B494FF080500860BFF34F8FBFF36D
:104680006F8FF8BDA642EBD800F09AFF2146304666
:10469000FFF74AFFF8BD0125E2E7000070000020A7
:1046A00004ED00E070B516460C46054604E0A86926
:1046B000296A044428468847A869234601193246D6
:1046C0002846FFF707FF0028F1D170BD0548816B30
:1046D000096821B1816BC9680968816270474FF030
:1046E000FF31FAE7300000202DE9F041064600F0E6
:1046F000CBFD0E4C0546A068854214D24FF0FF3723
:1047000004E0C06839460068FFF70EFFE068016802
:104710000029F6D12169C4E9031001203060284640
:10472000A560BDE8F0810020F8E7000070000020DF
:10473000502080F31188BFF34F8FBFF36F8FFEE7D8
:10474000074CE068016841B1C0680021D0F8000062
:10475000FFF772FFFFF708FFF3E701210020F7E7FB
:10476000700000202DE9F041044600F0FFF894F9B4
:10477000455004F1240609E0606A48B1304600F073
:10478000B9FE08B100F0B2F96D1E6DB2002DF3DC78
:104790004FF0FF3684F8456000F0F6F800F0E6F8D8
:1047A00094F9445004F1100709E0206948B13846F3
:1047B00000F0A0FE08B100F099F96D1E6DB2002D59
:1047C000F3DC84F84460BDE8F04100F0DDB800009F
:1047D00070B50446002600F039FA224D286808B961
:1047E000FFF7BEFDCCB304F00700C0F11000C143D9
:1047F0008C4232D8211800292FDD686881422CD8DC
:10480000184814300246146801E0204614466268D5
:104810008A4202D22268002AF7D12A6894421CD028
:1048200006682268026060680836421A102A04D9B5
:10483000601842606160FFF727FE61686868401A8F
:104840006860AA68904200D2A86041F000406060B1
:1048500000202060E868401CE86000F0B1FE3046AF
:1048600070BD0000140000200449086818B10868F1
:10487000026D521C0265086870470000300000207D
:1048800010B5031F4FF080741C601B1F21F0010145
:104890001960191F024B0B60143940380A6010BDB3
:1048A0003147000830B585B00D460446FCF7EEFEF2
:1048B000002000900120CDE9024004A96846FCF7E1
:1048C00047FE2A46002321460220FCF79FFEFCF704
:1048D00093FE05B030BDD0E9013201699A60D0E99C
:1048E00001235A604A68824201D182684A600022EC
:1048F00002610868401E08600868704701488068C7
:10490000704700003000002000F108014FF0FF3236
:10491000C0E90112C16001610021016070470021FE
:104920000161704730B50B685A1C02D000F10802D3
:1049300002E0026904E02246546825689D42FAD9E3
:1049400053684B6099608A60516008610168491C36
:10495000016030BD42684A6093688B60936859601B
:10496000916008610168491C01607047502080F324
:104970001188BFF34F8FBFF36F8F02480168491C46
:10498000016070471000002003490868401E08605D
:1049900001D180F3118870471000002070B5002805
:1049A0001BD0A0F108046068002816DA21680029ED
:1049B00013D120F00040606000F048F9074D6068B6
:1049C0006968084468602046FFF75EFD2869401C5E
:1049D0002861BDE8704000F0F3BD70BD14000020F8
:1049E0004FF0E0200021016181610249416107210E
:1049F000016170473F19010070B515460E46044627
:104A0000FFF7B4FF94F944100020491C01D184F849
:104A1000440094F94510491C01D184F84500FFF782
:104A2000B3FFA06B28B92A46314604F1240000F0F8
:104A300073F82046BDE87040FFF794BE70B5054698
:104A4000FFF794FF214C05B92568281DFFF743FFA8
:104A500058B9E86A1E4A00EB800152F8211021B9CA
:104A600001218140206988432061A86A18B105F1BD
:104A70001800FFF730FF606A401C606220688542C2
:104A800007D1291D1348FFF765FF6068401C60606F
:104A900004E0A068401EA060FFF718FEFFF774FF57
:104AA0002068854202D02846FFF74FFC6069002845
:104AB0000AD02068854207D107494FF0805008602E
:104AC000BFF34F8FBFF36F8F70BD00003000002029
:104AD000C83100208434002004ED00E002490A6A55
:104AE0000260C96841607047300000200149012020
:104AF000C86170473000002010B50C4605490968B0
:104B00001831FFF70FFF2046BDE810400121FFF7E5
:104B1000F7BA000030000020F0B40C460D4943689D
:104B20000D68EB619D680E6835620D689E681835EA
:104B300075600D6818359D60096888620168491CB8
:104B400001600AB14FF0FF342046F0BC1146FFF778
:104B5000D7BA00003000002070B5040044D0E06CEB
:104B6000884200D30146E06A88423DD0226D012A86
:104B70003AD1E162A269002A02DBC1F12001A16100
:104B80001A4D00EB8000616905EB800081422BD15A
:104B9000201DFFF7A0FE1649012230B994F82C0021
:104BA0000B6902FA00F083430B61E06A0B698240F3
:104BB0001A430A6100EB800005EB80004068A060AA
:104BC0008168E1608268211D51608160E06A00EBCC
:104BD000800005EB80006061E06A00EB800055F822
:104BE0002010491C45F8201070BD0000C83100207D
:104BF000300000207CB511480025CDE900502B463F
:104C000080220FA1104800F0D7FA0C4C2C3C012850
:104C100012D100F063FD01280ED1502080F31188DD
:104C2000BFF34F8FBFF36F8F4FF0FF30A0620120B3
:104C30006061E56000F034F8206B7CBD5C00002012
:104C400049444C4500000000A54300080248416B60
:104C5000491C416370470000300000200E48416B42
:104C600011B10121C16170470021C16101690B4A85
:104C7000B1FA81F1C1F11F0101EB810102EB810168
:104C800001F108034A6852684A609A4201D15268A9
:104C90004A60D1680160704730000020C8310020B0
:104CA000094810B5016841F470010160016841F0E4
:104CB00070410160FFF794FE044900200860FBF793
:104CC00033FA002010BD000020ED00E010000020AD
:104CD00010B5502080F31188BFF34F8FBFF36F8F53
:104CE00000F0D8FA18B104494FF080500860002055
:104CF00080F3118810BD000004ED00E02DE9F041C3
:104D000017460E4605004FF000041AD0601EB0FB97
:104D1000F5F0B04215D305FB06F010F1510F10D895
:104D20005030FFF755FD04000BD004F150005EB188
:104D30002060C4E90F562046012100F007F884F8EE
:104D40004C702046BDE8F0812460F2E72DE9F04187
:104D50000F4604004FF001063CD0E06BC8B3B51E0F
:104D6000B5FBF0F1206C814234D3FFF7FFFDD4E9AD
:104D70000F20216802FB0011A1600021A1632168BE
:104D800061600A46D4E90F01401E00FB0121204664
:104D9000E16000F8445F457004F110004FB1FFF787
:104DA000B3FD04F12400FFF7AFFD00BFFFF7ECFDFA
:104DB00011E021690029F9D000F09CFB0028F5D012
:104DC00006494FF080500860BFF34F8FBFF36F8FDD
:104DD000ECE7FFE700263046BDE8F08104ED00E097
:104DE0002DE9FF4700273B4E82B099468A4604468C
:104DF000B8464FF0805500BFFFF7B8FDA06BE16BE0
:104E0000884206D3B9F1020F03D00498C0B1D7B1DC
:104E10001DE04A4651462046FFF761FA616A19B122
:104E200004F1240000F066FB20B13560BFF34F8F22
:104E3000BFF36F8FFFF7A8FD012006B0BDE8F08734
:104E4000FFF7A2FD21E06846FFF748FE0127FFF7C4
:104E50009BFDFFF7FBFEFFF789FD94F94400401C22
:104E600001D184F8448094F94500401C01D184F8B4
:104E70004580FFF789FD04A9684600F071F930B15B
:104E80002046FFF76FFC00F09BFB0020D5E7FFF703
:104E90006DFDA06BE16B884213D1FFF775FD04F146
:104EA00010000499FFF728FE2046FFF75BFC00F096
:104EB00087FB0028A0D13560BFF34F8FBFF36F8F02
:104EC0009AE7FFF761FD2046FFF74CFC00F078FB06
:104ED00092E7000004ED00E02DE9F041044617469A
:104EE0005020EFF3118680F31188BFF34F8FBFF38B
:104EF0006F8FA26BE06B824206D3022B04D000209E
:104F000086F31188BDE8F08194F94550A06B1A46EC
:104F10002046FFF7E4F9681C08D0FFF7EFFC854254
:104F200002D26D1C84F845500120E9E7606A002830
:104F3000FAD004F1240000F0DDFA0028F4D0002FAC
:104F4000F2D001203860EFE72DE9F7470026DFF8BF
:104F5000E48083B08A460446B1464FF0805700BFD4
:104F6000FFF704FDA56BC5B151462046FFF7A4F934
:104F70006D1EA563206950B104F1100000F0BAFA6B
:104F800028B1C8F80070BFF34F8FBFF36F8FFFF7E2
:104F9000FBFC012006B0BDE8F087059808B11EB102
:104FA00006E0FFF7F1FC27E06846FFF797FD0126D2
:104FB000FFF7EAFCFFF74AFEFFF7D8FC94F944003C
:104FC000401C01D184F8449094F94500401C01D163
:104FD00084F84590FFF7D8FC05A9684600F0C0F8B2
:104FE000002820460AD0FFF7BDFB00F0E9FA204672
:104FF000FFF78CFA0028B3D00020CBE7FFF786FA42
:1050000090B104F124000599FFF776FD2046FFF7E3
:10501000A9FB00F0D5FA0028A2D1C8F80070BFF3B0
:105020004F8FBFF36F8F9BE72046FFF79BFB00F08E
:10503000C7FA95E704ED00E02DE9F3430026DFF819
:105040001C8183B004463546B1464FF0805700BFFF
:10505000FFF78CFCA06BC8B1401EA063206810B99C
:10506000FFF702FCA060206950B104F1100000F0CD
:1050700041FA28B1C8F80070BFF34F8FBFF36F8FAC
:10508000FFF782FC012005B0BDE8F083049808B169
:105090001EB106E0FFF778FC5EE06846FFF71EFDF4
:1050A0000126FFF771FCFFF7D1FDFFF75FFC94F9D4
:1050B0004400401C01D184F8449094F94500401C00
:1050C00001D184F84590FFF75FFC04A9684600F021
:1050D00047F80028204612D0FFF744FB00F070FA92
:1050E0002046FFF713FA0028B2D075B3FFF73EFC55
:1050F000606A58B3206B0068C0F1200128E0FFF718
:1051000005FAE0B1206838B9FFF730FCA06800F07C
:1051100099F90546FFF738FC04F124000499FFF7DC
:10512000EBFC2046FFF71EFB00F04AFA00288FD167
:10513000C8F80070BFF34F8FBFF36F8F88E720462A
:10514000FFF710FB00F03CFA82E705E0FFE70021E3
:10515000A068FFF701FD9DE7002094E704ED00E063
:105160002DE9F0410C460546FFF700FC114EF268B0
:105170006B682168D01A4F1C0AD02F68D6F820C05F
:105180000026674506D0934204D8012526600BE02F
:10519000002509E0814205D9081A20602846FFF75A
:1051A0009DFCF5E701252660FFF7EEFB2846BDE8EC
:1051B000F0810000300000202DE9FF5F8346DDE92B
:1051C0000E87994616468A469000FFF701FB0500B8
:1051D0001DD07020FFF7FCFA040015D07021FBF7FA
:1051E00018F825630021CDE90241CDE900874B463F
:1051F000324651465846FFF705F92046FEF7C4FFF0
:10520000012004B0BDE8F09F2846FFF7C7FB4FF030
:10521000FF30F6E770B50E4605460024FFF716FD91
:105220001048C2682B689919934204D98B420BD954
:10523000914202D808E08B42FAD9881A29600124E9
:105240000021FEF75DFF00E0296000F0B9F938B9F0
:1052500005494FF080500860BFF34F8FBFF36F8F49
:10526000204670BD3000002004ED00E00548416993
:1052700019B1406B18B1002070470120704702201F
:1052800070470000300000200148C06870470000EF
:10529000300000202DE9F041454C0026606B28B11C
:1052A000A069401CA0613046BDE8F081E5686D1C36
:1052B000E56008D1A06BE16BA163E063206A401C4C
:1052C0002062FFF703FAA16A3A488D420FD34FF0EC
:1052D000000EA16B096839B1A16BC968C9684A6839
:1052E000954212D2A26202E04FF0FF31A162216822
:1052F000C96A01EB810150F82100012800D901267B
:10530000E0690028CFD00126CDE7D1E902724B69D0
:10531000BA60D1E902277A605F680A1D974201D11D
:10532000CF685F60C1F814E01F687F1E1F60D1F86E
:1053300028C0BCF1000F15D0D1E907379F60D1E933
:1053400007377B60DCF8047001F118039F4202D13B
:105350000B6ACCF80430C1F828E0DCF800305B1EA2
:10536000CCF80030CB6A0127D4F810C09F4047EA40
:105370000C07276103EB830300EB83035B688B60FF
:105380009F68CF609F687A609A60CA6A02EB820267
:1053900000EB82034B6150F822305B1C40F8223056
:1053A000C96A2268D26A914293D9012691E7000026
:1053B00030000020C831002010B504004FF000017B
:1053C0003AD0206D401E2065E36CE26A9A4233D0E9
:1053D00090BB201DFFF77FFA184A012130B994F8DD
:1053E0002C00136901FA00F083431361E06CE06262
:1053F000C0F12000A061E06A136981401943116186
:105400000F4900EB800001EB80004068A0608268DB
:10541000E2608368221D5A608260E06A00EB8000CF
:1054200001EB80006061E06A00EB800051F8202011
:10543000521C41F820200121084610BD30000020F8
:10544000C831002070B504004FF0000047D0274D50
:10545000E16A2A68D26A914242D2A069002804DB3C
:105460002868C06AC0F12000A061214E01EB8101D3
:10547000606906EB810188422DD1201DFFF72BFAD0
:10548000012130B994F82C002A6901FA00F0824316
:105490002A612868C06AE0622A6981401143296153
:1054A00000EB800006EB80004068A0608168E1604E
:1054B0008268211D51608160E06A00EB800006EB8C
:1054C00080006061E06A00EB800056F82010491C03
:1054D00046F8201002E02868C06AE062012070BD32
:1054E000E16C2A68D26A9142F8D370BD3000002086
:1054F000C831002070B5C068C068D0E90732816A41
:105500009A60D0E907235A604B6800F11802934271
:1055100001D1036A4B60002383620C68641E0C6037
:1055200024494D6B01249DB1234D6B68C3619E6876
:1055300006629E6872609A6085622A68521C2A60C0
:10554000C06A0A68D26A904231D90120CC6170BD2C
:10555000D0E902654269B560D0E9025675605668C7
:10556000051DAE4201D1C6685660436113685B1EDB
:105570001360C26A0E6904FA02F333430B610F4BE6
:1055800002EB820203EB8202526882609668C66078
:10559000966875609560C26A02EB820203EB820531
:1055A000456153F822506D1C43F82250C8E7002093
:1055B00070BD00003000002070340020C831002091
:1055C0002DE9F04100242746FFF7D0F93F4D686BE5
:1055D000401E6863686B002872D1A8683C4B0026A7
:1055E0004FF00108F0BB6BE0D868C468D4E907212C
:1055F000A06A9160D4E907125160426804F1180171
:105600008A4201D1216A4160A6620168491E016097
:10561000D4E9022160699160D4E9021251604268C4
:10562000211D8A4201D1E268426066610268521E11
:105630000260E26AD5F810C008FA02F040EA0C00F5
:10564000286102EB8200234A02EB80004068A060E0
:10565000D0F808C0C4F80CC0D0F808C0CCF80410CA
:10566000816000E011E0E06A00EB800002EB800165
:10567000616152F82010491C42F82010E06A296844
:10568000C96A884201D3C5F81C8018680028ABD1CC
:105690000CB1FFF71BF8AC6944B100BFFFF7FAFD8E
:1056A00008B1C5F81C80641EF8D1AE61E86938B154
:1056B0000949012738070860BFF34F8FBFF36F8F89
:1056C000FFF762F93846BDE8F081000030000020A5
:1056D00070340020C831002004ED00E01CB5002427
:1056E000FEF7CAFD0848006858B107490F20091D98
:1056F000CDE900010023802204A10648FFF75CFDEC
:10570000044620461CBD000070000020546D72202D
:1057100053766300414700080102020304050607AF
:1057200008090A0B0C0D0E0F1010010202030405EC
:10573000060708090A0B0C0D0E0F101000000000E0
:105740000000000001020304060708090000000031
:10575000010203040040404040404040404041417D
:105760004141414040404040404040404040404036
:1057700040404040400502020202020202020202D0
:1057800002020202022020202020202020202002CD
:10579000020202020202909090909090101010105D
:1057A00010101010101010101010101010101010F9
:1057B000020202020202888888888888080808088D
:1057C0000808080808080808080808080808080859
:1057D000020202024000000055570008FC57000872
:1057E00000000020B800000084370008B45800080A
:1057F000B8000020E83C00009437000801000000D9
:10580000100000000000000000127A00AAAAAAAA54
:105810000000000000000000000000000000000088
:105820000000000000000000000000000000000078
:105830000000000000000000000000000000000068
:105840000000000000000000000000000000000058
:105850000000000000000000000000001F00000029
:105860000000000000000000000000000000000038
:105870000000000000000000000000000000000028
:105880000000000000000000000000000000000018
:10589000000000000000000060EA000000000000BE
:1058A00000000000000000000000000000000000F8
:0458B00000000000F4
:04000005080000ED02
:00000001FF
